{
  "contractName": "MasterChef",
  "abi": [
    {
      "inputs": [
        {
          "internalType": "contract PattayaToken",
          "name": "_pattaya",
          "type": "address"
        },
        {
          "internalType": "uint256",
          "name": "_startBlock",
          "type": "uint256"
        },
        {
          "internalType": "uint256",
          "name": "_pattayaPerBlock",
          "type": "uint256"
        }
      ],
      "stateMutability": "nonpayable",
      "type": "constructor"
    },
    {
      "anonymous": false,
      "inputs": [
        {
          "indexed": true,
          "internalType": "address",
          "name": "user",
          "type": "address"
        },
        {
          "indexed": true,
          "internalType": "uint256",
          "name": "pid",
          "type": "uint256"
        },
        {
          "indexed": false,
          "internalType": "uint256",
          "name": "amount",
          "type": "uint256"
        }
      ],
      "name": "Deposit",
      "type": "event"
    },
    {
      "anonymous": false,
      "inputs": [
        {
          "indexed": true,
          "internalType": "address",
          "name": "user",
          "type": "address"
        },
        {
          "indexed": true,
          "internalType": "uint256",
          "name": "pid",
          "type": "uint256"
        },
        {
          "indexed": false,
          "internalType": "uint256",
          "name": "amount",
          "type": "uint256"
        }
      ],
      "name": "EmergencyWithdraw",
      "type": "event"
    },
    {
      "anonymous": false,
      "inputs": [
        {
          "indexed": true,
          "internalType": "address",
          "name": "caller",
          "type": "address"
        },
        {
          "indexed": false,
          "internalType": "uint256",
          "name": "previousAmount",
          "type": "uint256"
        },
        {
          "indexed": false,
          "internalType": "uint256",
          "name": "newAmount",
          "type": "uint256"
        }
      ],
      "name": "EmissionRateUpdated",
      "type": "event"
    },
    {
      "anonymous": false,
      "inputs": [
        {
          "indexed": true,
          "internalType": "address",
          "name": "previousOwner",
          "type": "address"
        },
        {
          "indexed": true,
          "internalType": "address",
          "name": "newOwner",
          "type": "address"
        }
      ],
      "name": "OwnershipTransferred",
      "type": "event"
    },
    {
      "anonymous": false,
      "inputs": [
        {
          "indexed": true,
          "internalType": "address",
          "name": "user",
          "type": "address"
        },
        {
          "indexed": true,
          "internalType": "address",
          "name": "referrer",
          "type": "address"
        },
        {
          "indexed": false,
          "internalType": "uint256",
          "name": "commissionAmount",
          "type": "uint256"
        }
      ],
      "name": "ReferralCommissionPaid",
      "type": "event"
    },
    {
      "anonymous": false,
      "inputs": [
        {
          "indexed": true,
          "internalType": "address",
          "name": "user",
          "type": "address"
        },
        {
          "indexed": true,
          "internalType": "uint256",
          "name": "pid",
          "type": "uint256"
        },
        {
          "indexed": false,
          "internalType": "uint256",
          "name": "amountLockedUp",
          "type": "uint256"
        }
      ],
      "name": "RewardLockedUp",
      "type": "event"
    },
    {
      "anonymous": false,
      "inputs": [
        {
          "indexed": true,
          "internalType": "address",
          "name": "user",
          "type": "address"
        },
        {
          "indexed": true,
          "internalType": "uint256",
          "name": "pid",
          "type": "uint256"
        },
        {
          "indexed": false,
          "internalType": "uint256",
          "name": "amount",
          "type": "uint256"
        }
      ],
      "name": "Withdraw",
      "type": "event"
    },
    {
      "inputs": [],
      "name": "BONUS_MULTIPLIER",
      "outputs": [
        {
          "internalType": "uint256",
          "name": "",
          "type": "uint256"
        }
      ],
      "stateMutability": "view",
      "type": "function"
    },
    {
      "inputs": [],
      "name": "MAXIMUM_HARVEST_INTERVAL",
      "outputs": [
        {
          "internalType": "uint256",
          "name": "",
          "type": "uint256"
        }
      ],
      "stateMutability": "view",
      "type": "function"
    },
    {
      "inputs": [],
      "name": "MAXIMUM_REFERRAL_COMMISSION_RATE",
      "outputs": [
        {
          "internalType": "uint16",
          "name": "",
          "type": "uint16"
        }
      ],
      "stateMutability": "view",
      "type": "function"
    },
    {
      "inputs": [],
      "name": "devAddress",
      "outputs": [
        {
          "internalType": "address",
          "name": "",
          "type": "address"
        }
      ],
      "stateMutability": "view",
      "type": "function"
    },
    {
      "inputs": [],
      "name": "feeAddress",
      "outputs": [
        {
          "internalType": "address",
          "name": "",
          "type": "address"
        }
      ],
      "stateMutability": "view",
      "type": "function"
    },
    {
      "inputs": [],
      "name": "owner",
      "outputs": [
        {
          "internalType": "address",
          "name": "",
          "type": "address"
        }
      ],
      "stateMutability": "view",
      "type": "function"
    },
    {
      "inputs": [],
      "name": "pattaya",
      "outputs": [
        {
          "internalType": "contract PattayaToken",
          "name": "",
          "type": "address"
        }
      ],
      "stateMutability": "view",
      "type": "function"
    },
    {
      "inputs": [],
      "name": "pattayaPerBlock",
      "outputs": [
        {
          "internalType": "uint256",
          "name": "",
          "type": "uint256"
        }
      ],
      "stateMutability": "view",
      "type": "function"
    },
    {
      "inputs": [],
      "name": "pattayaReferral",
      "outputs": [
        {
          "internalType": "contract IPattayaReferral",
          "name": "",
          "type": "address"
        }
      ],
      "stateMutability": "view",
      "type": "function"
    },
    {
      "inputs": [
        {
          "internalType": "uint256",
          "name": "",
          "type": "uint256"
        }
      ],
      "name": "poolInfo",
      "outputs": [
        {
          "internalType": "contract IBEP20",
          "name": "lpToken",
          "type": "address"
        },
        {
          "internalType": "uint256",
          "name": "allocPoint",
          "type": "uint256"
        },
        {
          "internalType": "uint256",
          "name": "lastRewardBlock",
          "type": "uint256"
        },
        {
          "internalType": "uint256",
          "name": "accPattayaPerShare",
          "type": "uint256"
        },
        {
          "internalType": "uint16",
          "name": "depositFeeBP",
          "type": "uint16"
        },
        {
          "internalType": "uint256",
          "name": "harvestInterval",
          "type": "uint256"
        }
      ],
      "stateMutability": "view",
      "type": "function"
    },
    {
      "inputs": [],
      "name": "referralCommissionRate",
      "outputs": [
        {
          "internalType": "uint16",
          "name": "",
          "type": "uint16"
        }
      ],
      "stateMutability": "view",
      "type": "function"
    },
    {
      "inputs": [],
      "name": "renounceOwnership",
      "outputs": [],
      "stateMutability": "nonpayable",
      "type": "function"
    },
    {
      "inputs": [],
      "name": "startBlock",
      "outputs": [
        {
          "internalType": "uint256",
          "name": "",
          "type": "uint256"
        }
      ],
      "stateMutability": "view",
      "type": "function"
    },
    {
      "inputs": [],
      "name": "totalAllocPoint",
      "outputs": [
        {
          "internalType": "uint256",
          "name": "",
          "type": "uint256"
        }
      ],
      "stateMutability": "view",
      "type": "function"
    },
    {
      "inputs": [],
      "name": "totalLockedUpRewards",
      "outputs": [
        {
          "internalType": "uint256",
          "name": "",
          "type": "uint256"
        }
      ],
      "stateMutability": "view",
      "type": "function"
    },
    {
      "inputs": [
        {
          "internalType": "address",
          "name": "newOwner",
          "type": "address"
        }
      ],
      "name": "transferOwnership",
      "outputs": [],
      "stateMutability": "nonpayable",
      "type": "function"
    },
    {
      "inputs": [
        {
          "internalType": "uint256",
          "name": "",
          "type": "uint256"
        },
        {
          "internalType": "address",
          "name": "",
          "type": "address"
        }
      ],
      "name": "userInfo",
      "outputs": [
        {
          "internalType": "uint256",
          "name": "amount",
          "type": "uint256"
        },
        {
          "internalType": "uint256",
          "name": "rewardDebt",
          "type": "uint256"
        },
        {
          "internalType": "uint256",
          "name": "rewardLockedUp",
          "type": "uint256"
        },
        {
          "internalType": "uint256",
          "name": "nextHarvestUntil",
          "type": "uint256"
        }
      ],
      "stateMutability": "view",
      "type": "function"
    },
    {
      "inputs": [],
      "name": "poolLength",
      "outputs": [
        {
          "internalType": "uint256",
          "name": "",
          "type": "uint256"
        }
      ],
      "stateMutability": "view",
      "type": "function"
    },
    {
      "inputs": [
        {
          "internalType": "uint256",
          "name": "_allocPoint",
          "type": "uint256"
        },
        {
          "internalType": "contract IBEP20",
          "name": "_lpToken",
          "type": "address"
        },
        {
          "internalType": "uint16",
          "name": "_depositFeeBP",
          "type": "uint16"
        },
        {
          "internalType": "uint256",
          "name": "_harvestInterval",
          "type": "uint256"
        },
        {
          "internalType": "bool",
          "name": "_withUpdate",
          "type": "bool"
        }
      ],
      "name": "add",
      "outputs": [],
      "stateMutability": "nonpayable",
      "type": "function"
    },
    {
      "inputs": [
        {
          "internalType": "uint256",
          "name": "_pid",
          "type": "uint256"
        },
        {
          "internalType": "uint256",
          "name": "_allocPoint",
          "type": "uint256"
        },
        {
          "internalType": "uint16",
          "name": "_depositFeeBP",
          "type": "uint16"
        },
        {
          "internalType": "uint256",
          "name": "_harvestInterval",
          "type": "uint256"
        },
        {
          "internalType": "bool",
          "name": "_withUpdate",
          "type": "bool"
        }
      ],
      "name": "set",
      "outputs": [],
      "stateMutability": "nonpayable",
      "type": "function"
    },
    {
      "inputs": [
        {
          "internalType": "uint256",
          "name": "_from",
          "type": "uint256"
        },
        {
          "internalType": "uint256",
          "name": "_to",
          "type": "uint256"
        }
      ],
      "name": "getMultiplier",
      "outputs": [
        {
          "internalType": "uint256",
          "name": "",
          "type": "uint256"
        }
      ],
      "stateMutability": "pure",
      "type": "function"
    },
    {
      "inputs": [
        {
          "internalType": "uint256",
          "name": "_pid",
          "type": "uint256"
        },
        {
          "internalType": "address",
          "name": "_user",
          "type": "address"
        }
      ],
      "name": "pendingPattaya",
      "outputs": [
        {
          "internalType": "uint256",
          "name": "",
          "type": "uint256"
        }
      ],
      "stateMutability": "view",
      "type": "function"
    },
    {
      "inputs": [
        {
          "internalType": "uint256",
          "name": "_pid",
          "type": "uint256"
        },
        {
          "internalType": "address",
          "name": "_user",
          "type": "address"
        }
      ],
      "name": "canHarvest",
      "outputs": [
        {
          "internalType": "bool",
          "name": "",
          "type": "bool"
        }
      ],
      "stateMutability": "view",
      "type": "function"
    },
    {
      "inputs": [],
      "name": "massUpdatePools",
      "outputs": [],
      "stateMutability": "nonpayable",
      "type": "function"
    },
    {
      "inputs": [
        {
          "internalType": "uint256",
          "name": "_pid",
          "type": "uint256"
        }
      ],
      "name": "updatePool",
      "outputs": [],
      "stateMutability": "nonpayable",
      "type": "function"
    },
    {
      "inputs": [
        {
          "internalType": "uint256",
          "name": "_pid",
          "type": "uint256"
        },
        {
          "internalType": "uint256",
          "name": "_amount",
          "type": "uint256"
        },
        {
          "internalType": "address",
          "name": "_referrer",
          "type": "address"
        }
      ],
      "name": "deposit",
      "outputs": [],
      "stateMutability": "nonpayable",
      "type": "function"
    },
    {
      "inputs": [
        {
          "internalType": "uint256",
          "name": "_pid",
          "type": "uint256"
        },
        {
          "internalType": "uint256",
          "name": "_amount",
          "type": "uint256"
        }
      ],
      "name": "withdraw",
      "outputs": [],
      "stateMutability": "nonpayable",
      "type": "function"
    },
    {
      "inputs": [
        {
          "internalType": "uint256",
          "name": "_pid",
          "type": "uint256"
        }
      ],
      "name": "emergencyWithdraw",
      "outputs": [],
      "stateMutability": "nonpayable",
      "type": "function"
    },
    {
      "inputs": [
        {
          "internalType": "address",
          "name": "_devAddress",
          "type": "address"
        }
      ],
      "name": "setDevAddress",
      "outputs": [],
      "stateMutability": "nonpayable",
      "type": "function"
    },
    {
      "inputs": [
        {
          "internalType": "address",
          "name": "_feeAddress",
          "type": "address"
        }
      ],
      "name": "setFeeAddress",
      "outputs": [],
      "stateMutability": "nonpayable",
      "type": "function"
    },
    {
      "inputs": [
        {
          "internalType": "uint256",
          "name": "_pattayaPerBlock",
          "type": "uint256"
        }
      ],
      "name": "updateEmissionRate",
      "outputs": [],
      "stateMutability": "nonpayable",
      "type": "function"
    },
    {
      "inputs": [
        {
          "internalType": "contract IPattayaReferral",
          "name": "_pattayaReferral",
          "type": "address"
        }
      ],
      "name": "setPattayaReferral",
      "outputs": [],
      "stateMutability": "nonpayable",
      "type": "function"
    },
    {
      "inputs": [
        {
          "internalType": "uint16",
          "name": "_referralCommissionRate",
          "type": "uint16"
        }
      ],
      "name": "setReferralCommissionRate",
      "outputs": [],
      "stateMutability": "nonpayable",
      "type": "function"
    }
  ],
  "bytecode": "0x608060405260006008556064600b60146101000a81548161ffff021916908361ffff1602179055503480156200003457600080fd5b5060405162003e0938038062003e09833981810160405260608110156200005a57600080fd5b810190808051906020019092919080519060200190929190805190602001909291905050506000620000916200021060201b60201c565b9050806000806101000a81548173ffffffffffffffffffffffffffffffffffffffff021916908373ffffffffffffffffffffffffffffffffffffffff1602179055508073ffffffffffffffffffffffffffffffffffffffff16600073ffffffffffffffffffffffffffffffffffffffff167f8be0079c531659141344cd1fd0a4f28419497f9722a3daafe3b4186f6b6457e060405160405180910390a3506001808190555082600260006101000a81548173ffffffffffffffffffffffffffffffffffffffff021916908373ffffffffffffffffffffffffffffffffffffffff160217905550816009819055508060058190555033600360006101000a81548173ffffffffffffffffffffffffffffffffffffffff021916908373ffffffffffffffffffffffffffffffffffffffff16021790555033600460006101000a81548173ffffffffffffffffffffffffffffffffffffffff021916908373ffffffffffffffffffffffffffffffffffffffff16021790555050505062000218565b600033905090565b613be180620002286000396000f3fe608060405234801561001057600080fd5b50600436106101fb5760003560e01c8063630b5ba11161011a57806393f1a40b116100ad578063d150d3f71161007c578063d150d3f71461085c578063d30ef61b146108be578063de73149d146108e0578063ed05df0c146108fe578063f2fde38b1461091c576101fb565b806393f1a40b146106eb578063af018de814610762578063c2262515146107d4578063d0d41fe114610818576101fb565b80638aa28550116100e95780638aa28550146105f55780638da5cb5b146106135780638dbb1e3a146106475780638dbdbe6d14610693576101fb565b8063630b5ba114610569578063715018a6146105735780637a616aa11461057d5780638705fcd4146105b1576101fb565b8063441a3e701161019257806351eb05a61161016157806351eb05a6146104a75780635312ea8e146104d557806355dbc826146105035780635fb4f52814610535576101fb565b8063441a3e7014610411578063474fa6301461044957806348b22bfb1461046757806348cd4cb114610489576101fb565b80632143e545116101ce5780632143e545146102e95780632e6c998d146103455780633ad10ef6146103a957806341275358146103dd576101fb565b8063081e3eda146102005780630ba84cd21461021e5780631526fe271461024c57806317caf6f1146102cb575b600080fd5b610208610960565b6040518082815260200191505060405180910390f35b61024a6004803603602081101561023457600080fd5b810190808035906020019092919050505061096d565b005b6102786004803603602081101561026257600080fd5b8101908080359060200190929190505050610a86565b604051808773ffffffffffffffffffffffffffffffffffffffff1681526020018681526020018581526020018481526020018361ffff168152602001828152602001965050505050505060405180910390f35b6102d3610afd565b6040518082815260200191505060405180910390f35b610343600480360360a08110156102ff57600080fd5b810190808035906020019092919080359060200190929190803561ffff16906020019092919080359060200190929190803515159060200190929190505050610b03565b005b6103916004803603604081101561035b57600080fd5b8101908080359060200190929190803573ffffffffffffffffffffffffffffffffffffffff169060200190929190505050610d6a565b60405180821515815260200191505060405180910390f35b6103b1610dd0565b604051808273ffffffffffffffffffffffffffffffffffffffff16815260200191505060405180910390f35b6103e5610df6565b604051808273ffffffffffffffffffffffffffffffffffffffff16815260200191505060405180910390f35b6104476004803603604081101561042757600080fd5b810190808035906020019092919080359060200190929190505050610e1c565b005b6104516110aa565b6040518082815260200191505060405180910390f35b61046f6110b0565b604051808261ffff16815260200191505060405180910390f35b6104916110b6565b6040518082815260200191505060405180910390f35b6104d3600480360360208110156104bd57600080fd5b81019080803590602001909291905050506110bc565b005b610501600480360360208110156104eb57600080fd5b8101908080359060200190929190505050611417565b005b6105336004803603602081101561051957600080fd5b81019080803561ffff1690602001909291905050506115e7565b005b61053d611719565b604051808273ffffffffffffffffffffffffffffffffffffffff16815260200191505060405180910390f35b61057161173f565b005b61057b61176c565b005b6105856118d9565b604051808273ffffffffffffffffffffffffffffffffffffffff16815260200191505060405180910390f35b6105f3600480360360208110156105c757600080fd5b81019080803573ffffffffffffffffffffffffffffffffffffffff1690602001909291905050506118ff565b005b6105fd611aa9565b6040518082815260200191505060405180910390f35b61061b611aae565b604051808273ffffffffffffffffffffffffffffffffffffffff16815260200191505060405180910390f35b61067d6004803603604081101561065d57600080fd5b810190808035906020019092919080359060200190929190505050611ad7565b6040518082815260200191505060405180910390f35b6106e9600480360360608110156106a957600080fd5b810190808035906020019092919080359060200190929190803573ffffffffffffffffffffffffffffffffffffffff169060200190929190505050611b07565b005b6107376004803603604081101561070157600080fd5b8101908080359060200190929190803573ffffffffffffffffffffffffffffffffffffffff169060200190929190505050612120565b6040518085815260200184815260200183815260200182815260200194505050505060405180910390f35b6107d2600480360360a081101561077857600080fd5b8101908080359060200190929190803573ffffffffffffffffffffffffffffffffffffffff169060200190929190803561ffff1690602001909291908035906020019092919080351515906020019092919050505061215d565b005b610816600480360360208110156107ea57600080fd5b81019080803573ffffffffffffffffffffffffffffffffffffffff169060200190929190505050612434565b005b61085a6004803603602081101561082e57600080fd5b81019080803573ffffffffffffffffffffffffffffffffffffffff169060200190929190505050612527565b005b6108a86004803603604081101561087257600080fd5b8101908080359060200190929190803573ffffffffffffffffffffffffffffffffffffffff1690602001909291905050506126d1565b6040518082815260200191505060405180910390f35b6108c6612933565b604051808261ffff16815260200191505060405180910390f35b6108e8612947565b6040518082815260200191505060405180910390f35b61090661294e565b6040518082815260200191505060405180910390f35b61095e6004803603602081101561093257600080fd5b81019080803573ffffffffffffffffffffffffffffffffffffffff169060200190929190505050612954565b005b6000600680549050905090565b610975612b46565b73ffffffffffffffffffffffffffffffffffffffff16610993611aae565b73ffffffffffffffffffffffffffffffffffffffff1614610a1c576040517f08c379a00000000000000000000000000000000000000000000000000000000081526004018080602001828103825260208152602001807f4f776e61626c653a2063616c6c6572206973206e6f7420746865206f776e657281525060200191505060405180910390fd5b610a2461173f565b3373ffffffffffffffffffffffffffffffffffffffff167feedc6338c9c1ad8f3cd6c90dd09dbe98dbd57e610d3e59a17996d07acb0d951160055483604051808381526020018281526020019250505060405180910390a28060058190555050565b60068181548110610a9357fe5b90600052602060002090600602016000915090508060000160009054906101000a900473ffffffffffffffffffffffffffffffffffffffff16908060010154908060020154908060030154908060040160009054906101000a900461ffff16908060050154905086565b60085481565b610b0b612b46565b73ffffffffffffffffffffffffffffffffffffffff16610b29611aae565b73ffffffffffffffffffffffffffffffffffffffff1614610bb2576040517f08c379a00000000000000000000000000000000000000000000000000000000081526004018080602001828103825260208152602001807f4f776e61626c653a2063616c6c6572206973206e6f7420746865206f776e657281525060200191505060405180910390fd5b6127108361ffff161115610c11576040517f08c379a0000000000000000000000000000000000000000000000000000000008152600401808060200182810382526025815260200180613b876025913960400191505060405180910390fd5b62127500821115610c8a576040517f08c379a000000000000000000000000000000000000000000000000000000000815260040180806020018281038252601d8152602001807f7365743a20696e76616c6964206861727665737420696e74657276616c00000081525060200191505060405180910390fd5b8015610c9957610c9861173f565b5b610cde84610cd060068881548110610cad57fe5b906000526020600020906006020160010154600854612b4e90919063ffffffff16565b612bd190919063ffffffff16565b6008819055508360068681548110610cf257fe5b9060005260206000209060060201600101819055508260068681548110610d1557fe5b906000526020600020906006020160040160006101000a81548161ffff021916908361ffff1602179055508160068681548110610d4e57fe5b9060005260206000209060060201600501819055505050505050565b6000806007600085815260200190815260200160002060008473ffffffffffffffffffffffffffffffffffffffff1673ffffffffffffffffffffffffffffffffffffffff1681526020019081526020016000209050806003015442101591505092915050565b600360009054906101000a900473ffffffffffffffffffffffffffffffffffffffff1681565b600460009054906101000a900473ffffffffffffffffffffffffffffffffffffffff1681565b60026001541415610e95576040517f08c379a000000000000000000000000000000000000000000000000000000000815260040180806020018281038252601f8152602001807f5265656e7472616e637947756172643a207265656e7472616e742063616c6c0081525060200191505060405180910390fd5b6002600181905550600060068381548110610eac57fe5b9060005260206000209060060201905060006007600085815260200190815260200160002060003373ffffffffffffffffffffffffffffffffffffffff1673ffffffffffffffffffffffffffffffffffffffff16815260200190815260200160002090508281600001541015610f8a576040517f08c379a00000000000000000000000000000000000000000000000000000000081526004018080602001828103825260128152602001807f77697468647261773a206e6f7420676f6f64000000000000000000000000000081525060200191505060405180910390fd5b610f93846110bc565b610f9c84612c59565b600083111561101457610fbc838260000154612b4e90919063ffffffff16565b816000018190555061101333848460000160009054906101000a900473ffffffffffffffffffffffffffffffffffffffff1673ffffffffffffffffffffffffffffffffffffffff16612e849092919063ffffffff16565b5b61104664e8d4a5100061103884600301548460000154612f2690919063ffffffff16565b612fac90919063ffffffff16565b8160010181905550833373ffffffffffffffffffffffffffffffffffffffff167ff279e6a1f5e320cca91135676d9cb6e44ca8a08c0b88342bcdb1144f6511b568856040518082815260200191505060405180910390a35050600180819055505050565b600a5481565b6103e881565b60095481565b6000600682815481106110cb57fe5b90600052602060002090600602019050806002015443116110ec5750611414565b60008160000160009054906101000a900473ffffffffffffffffffffffffffffffffffffffff1673ffffffffffffffffffffffffffffffffffffffff166370a08231306040518263ffffffff1660e01b8152600401808273ffffffffffffffffffffffffffffffffffffffff16815260200191505060206040518083038186803b15801561117957600080fd5b505afa15801561118d573d6000803e3d6000fd5b505050506040513d60208110156111a357600080fd5b8101908080519060200190929190505050905060008114806111c9575060008260010154145b156111de574382600201819055505050611414565b60006111ee836002015443611ad7565b90506000611231600854611223866001015461121560055487612f2690919063ffffffff16565b612f2690919063ffffffff16565b612fac90919063ffffffff16565b9050600260009054906101000a900473ffffffffffffffffffffffffffffffffffffffff1673ffffffffffffffffffffffffffffffffffffffff166340c10f19600360009054906101000a900473ffffffffffffffffffffffffffffffffffffffff166112a8600a85612fac90919063ffffffff16565b6040518363ffffffff1660e01b8152600401808373ffffffffffffffffffffffffffffffffffffffff16815260200182815260200192505050600060405180830381600087803b1580156112fb57600080fd5b505af115801561130f573d6000803e3d6000fd5b50505050600260009054906101000a900473ffffffffffffffffffffffffffffffffffffffff1673ffffffffffffffffffffffffffffffffffffffff166340c10f1930836040518363ffffffff1660e01b8152600401808373ffffffffffffffffffffffffffffffffffffffff16815260200182815260200192505050600060405180830381600087803b1580156113a657600080fd5b505af11580156113ba573d6000803e3d6000fd5b505050506113fe6113eb846113dd64e8d4a5100085612f2690919063ffffffff16565b612fac90919063ffffffff16565b8560030154612bd190919063ffffffff16565b8460030181905550438460020181905550505050505b50565b60026001541415611490576040517f08c379a000000000000000000000000000000000000000000000000000000000815260040180806020018281038252601f8152602001807f5265656e7472616e637947756172643a207265656e7472616e742063616c6c0081525060200191505060405180910390fd5b60026001819055506000600682815481106114a757fe5b9060005260206000209060060201905060006007600084815260200190815260200160002060003373ffffffffffffffffffffffffffffffffffffffff1673ffffffffffffffffffffffffffffffffffffffff16815260200190815260200160002090506000816000015490506000826000018190555060008260010181905550600082600201819055506000826003018190555061158b33828560000160009054906101000a900473ffffffffffffffffffffffffffffffffffffffff1673ffffffffffffffffffffffffffffffffffffffff16612e849092919063ffffffff16565b833373ffffffffffffffffffffffffffffffffffffffff167fbb757047c2b5f3974fe26b7c10f732e7bce710b0952a71082702781e62ae0595836040518082815260200191505060405180910390a35050506001808190555050565b6115ef612b46565b73ffffffffffffffffffffffffffffffffffffffff1661160d611aae565b73ffffffffffffffffffffffffffffffffffffffff1614611696576040517f08c379a00000000000000000000000000000000000000000000000000000000081526004018080602001828103825260208152602001807f4f776e61626c653a2063616c6c6572206973206e6f7420746865206f776e657281525060200191505060405180910390fd5b6103e861ffff168161ffff1611156116f9576040517f08c379a0000000000000000000000000000000000000000000000000000000008152600401808060200182810382526048815260200180613aa86048913960600191505060405180910390fd5b80600b60146101000a81548161ffff021916908361ffff16021790555050565b600b60009054906101000a900473ffffffffffffffffffffffffffffffffffffffff1681565b6000600680549050905060005b818110156117685761175d816110bc565b80600101905061174c565b5050565b611774612b46565b73ffffffffffffffffffffffffffffffffffffffff16611792611aae565b73ffffffffffffffffffffffffffffffffffffffff161461181b576040517f08c379a00000000000000000000000000000000000000000000000000000000081526004018080602001828103825260208152602001807f4f776e61626c653a2063616c6c6572206973206e6f7420746865206f776e657281525060200191505060405180910390fd5b600073ffffffffffffffffffffffffffffffffffffffff1660008054906101000a900473ffffffffffffffffffffffffffffffffffffffff1673ffffffffffffffffffffffffffffffffffffffff167f8be0079c531659141344cd1fd0a4f28419497f9722a3daafe3b4186f6b6457e060405160405180910390a360008060006101000a81548173ffffffffffffffffffffffffffffffffffffffff021916908373ffffffffffffffffffffffffffffffffffffffff160217905550565b600260009054906101000a900473ffffffffffffffffffffffffffffffffffffffff1681565b600460009054906101000a900473ffffffffffffffffffffffffffffffffffffffff1673ffffffffffffffffffffffffffffffffffffffff163373ffffffffffffffffffffffffffffffffffffffff16146119c2576040517f08c379a00000000000000000000000000000000000000000000000000000000081526004018080602001828103825260188152602001807f736574466565416464726573733a20464f5242494444454e000000000000000081525060200191505060405180910390fd5b600073ffffffffffffffffffffffffffffffffffffffff168173ffffffffffffffffffffffffffffffffffffffff161415611a65576040517f08c379a00000000000000000000000000000000000000000000000000000000081526004018080602001828103825260138152602001807f736574466565416464726573733a205a45524f0000000000000000000000000081525060200191505060405180910390fd5b80600460006101000a81548173ffffffffffffffffffffffffffffffffffffffff021916908373ffffffffffffffffffffffffffffffffffffffff16021790555050565b600181565b60008060009054906101000a900473ffffffffffffffffffffffffffffffffffffffff16905090565b6000611aff6001611af18585612b4e90919063ffffffff16565b612f2690919063ffffffff16565b905092915050565b60026001541415611b80576040517f08c379a000000000000000000000000000000000000000000000000000000000815260040180806020018281038252601f8152602001807f5265656e7472616e637947756172643a207265656e7472616e742063616c6c0081525060200191505060405180910390fd5b6002600181905550600060068481548110611b9757fe5b9060005260206000209060060201905060006007600086815260200190815260200160002060003373ffffffffffffffffffffffffffffffffffffffff1673ffffffffffffffffffffffffffffffffffffffff1681526020019081526020016000209050611c04856110bc565b600084118015611c635750600073ffffffffffffffffffffffffffffffffffffffff16600b60009054906101000a900473ffffffffffffffffffffffffffffffffffffffff1673ffffffffffffffffffffffffffffffffffffffff1614155b8015611c9c5750600073ffffffffffffffffffffffffffffffffffffffff168373ffffffffffffffffffffffffffffffffffffffff1614155b8015611cd457503373ffffffffffffffffffffffffffffffffffffffff168373ffffffffffffffffffffffffffffffffffffffff1614155b15611d9b57600b60009054906101000a900473ffffffffffffffffffffffffffffffffffffffff1673ffffffffffffffffffffffffffffffffffffffff16630c7f7b6b33856040518363ffffffff1660e01b8152600401808373ffffffffffffffffffffffffffffffffffffffff1681526020018273ffffffffffffffffffffffffffffffffffffffff16815260200192505050600060405180830381600087803b158015611d8257600080fd5b505af1158015611d96573d6000803e3d6000fd5b505050505b611da485612c59565b600084111561208957611dfe3330868560000160009054906101000a900473ffffffffffffffffffffffffffffffffffffffff1673ffffffffffffffffffffffffffffffffffffffff16613035909392919063ffffffff16565b600260009054906101000a900473ffffffffffffffffffffffffffffffffffffffff1673ffffffffffffffffffffffffffffffffffffffff168260000160009054906101000a900473ffffffffffffffffffffffffffffffffffffffff1673ffffffffffffffffffffffffffffffffffffffff161415611f60576000611f47612710611f39600260009054906101000a900473ffffffffffffffffffffffffffffffffffffffff1673ffffffffffffffffffffffffffffffffffffffff1663b65d08b06040518163ffffffff1660e01b815260040160206040518083038186803b158015611eeb57600080fd5b505afa158015611eff573d6000803e3d6000fd5b505050506040513d6020811015611f1557600080fd5b810190808051906020019092919050505061ffff1688612f2690919063ffffffff16565b612fac90919063ffffffff16565b9050611f5c8186612b4e90919063ffffffff16565b9450505b60008260040160009054906101000a900461ffff1661ffff161115612068576000611fbe612710611fb08560040160009054906101000a900461ffff1661ffff1688612f2690919063ffffffff16565b612fac90919063ffffffff16565b9050612031600460009054906101000a900473ffffffffffffffffffffffffffffffffffffffff16828560000160009054906101000a900473ffffffffffffffffffffffffffffffffffffffff1673ffffffffffffffffffffffffffffffffffffffff16612e849092919063ffffffff16565b61205a8161204c878560000154612bd190919063ffffffff16565b612b4e90919063ffffffff16565b826000018190555050612088565b61207f848260000154612bd190919063ffffffff16565b81600001819055505b5b6120bb64e8d4a510006120ad84600301548460000154612f2690919063ffffffff16565b612fac90919063ffffffff16565b8160010181905550843373ffffffffffffffffffffffffffffffffffffffff167f90890809c654f11d6e72a28fa60149770a0d11ec6c92319d6ceb2bb0a4ea1a15866040518082815260200191505060405180910390a3505060018081905550505050565b6007602052816000526040600020602052806000526040600020600091509150508060000154908060010154908060020154908060030154905084565b612165612b46565b73ffffffffffffffffffffffffffffffffffffffff16612183611aae565b73ffffffffffffffffffffffffffffffffffffffff161461220c576040517f08c379a00000000000000000000000000000000000000000000000000000000081526004018080602001828103825260208152602001807f4f776e61626c653a2063616c6c6572206973206e6f7420746865206f776e657281525060200191505060405180910390fd5b6127108361ffff16111561226b576040517f08c379a0000000000000000000000000000000000000000000000000000000008152600401808060200182810382526025815260200180613a836025913960400191505060405180910390fd5b621275008211156122e4576040517f08c379a000000000000000000000000000000000000000000000000000000000815260040180806020018281038252601d8152602001807f6164643a20696e76616c6964206861727665737420696e74657276616c00000081525060200191505060405180910390fd5b80156122f3576122f261173f565b5b6000600954431161230657600954612308565b435b905061231f86600854612bd190919063ffffffff16565b60088190555060066040518060c001604052808773ffffffffffffffffffffffffffffffffffffffff168152602001888152602001838152602001600081526020018661ffff16815260200185815250908060018154018082558091505060019003906000526020600020906006020160009091909190915060008201518160000160006101000a81548173ffffffffffffffffffffffffffffffffffffffff021916908373ffffffffffffffffffffffffffffffffffffffff16021790555060208201518160010155604082015181600201556060820151816003015560808201518160040160006101000a81548161ffff021916908361ffff16021790555060a082015181600501555050505050505050565b61243c612b46565b73ffffffffffffffffffffffffffffffffffffffff1661245a611aae565b73ffffffffffffffffffffffffffffffffffffffff16146124e3576040517f08c379a00000000000000000000000000000000000000000000000000000000081526004018080602001828103825260208152602001807f4f776e61626c653a2063616c6c6572206973206e6f7420746865206f776e657281525060200191505060405180910390fd5b80600b60006101000a81548173ffffffffffffffffffffffffffffffffffffffff021916908373ffffffffffffffffffffffffffffffffffffffff16021790555050565b600360009054906101000a900473ffffffffffffffffffffffffffffffffffffffff1673ffffffffffffffffffffffffffffffffffffffff163373ffffffffffffffffffffffffffffffffffffffff16146125ea576040517f08c379a00000000000000000000000000000000000000000000000000000000081526004018080602001828103825260188152602001807f736574446576416464726573733a20464f5242494444454e000000000000000081525060200191505060405180910390fd5b600073ffffffffffffffffffffffffffffffffffffffff168173ffffffffffffffffffffffffffffffffffffffff16141561268d576040517f08c379a00000000000000000000000000000000000000000000000000000000081526004018080602001828103825260138152602001807f736574446576416464726573733a205a45524f0000000000000000000000000081525060200191505060405180910390fd5b80600360006101000a81548173ffffffffffffffffffffffffffffffffffffffff021916908373ffffffffffffffffffffffffffffffffffffffff16021790555050565b600080600684815481106126e157fe5b9060005260206000209060060201905060006007600086815260200190815260200160002060008573ffffffffffffffffffffffffffffffffffffffff1673ffffffffffffffffffffffffffffffffffffffff168152602001908152602001600020905060008260030154905060008360000160009054906101000a900473ffffffffffffffffffffffffffffffffffffffff1673ffffffffffffffffffffffffffffffffffffffff166370a08231306040518263ffffffff1660e01b8152600401808273ffffffffffffffffffffffffffffffffffffffff16815260200191505060206040518083038186803b1580156127db57600080fd5b505afa1580156127ef573d6000803e3d6000fd5b505050506040513d602081101561280557600080fd5b8101908080519060200190929190505050905083600201544311801561282c575060008114155b156128c7576000612841856002015443611ad7565b90506000612884600854612876886001015461286860055487612f2690919063ffffffff16565b612f2690919063ffffffff16565b612fac90919063ffffffff16565b90506128c26128b3846128a564e8d4a5100085612f2690919063ffffffff16565b612fac90919063ffffffff16565b85612bd190919063ffffffff16565b935050505b600061290d84600101546128ff64e8d4a510006128f1878960000154612f2690919063ffffffff16565b612fac90919063ffffffff16565b612b4e90919063ffffffff16565b9050612926846002015482612bd190919063ffffffff16565b9550505050505092915050565b600b60149054906101000a900461ffff1681565b6212750081565b60055481565b61295c612b46565b73ffffffffffffffffffffffffffffffffffffffff1661297a611aae565b73ffffffffffffffffffffffffffffffffffffffff1614612a03576040517f08c379a00000000000000000000000000000000000000000000000000000000081526004018080602001828103825260208152602001807f4f776e61626c653a2063616c6c6572206973206e6f7420746865206f776e657281525060200191505060405180910390fd5b600073ffffffffffffffffffffffffffffffffffffffff168173ffffffffffffffffffffffffffffffffffffffff161415612a89576040517f08c379a0000000000000000000000000000000000000000000000000000000008152600401808060200182810382526026815260200180613b1a6026913960400191505060405180910390fd5b8073ffffffffffffffffffffffffffffffffffffffff1660008054906101000a900473ffffffffffffffffffffffffffffffffffffffff1673ffffffffffffffffffffffffffffffffffffffff167f8be0079c531659141344cd1fd0a4f28419497f9722a3daafe3b4186f6b6457e060405160405180910390a3806000806101000a81548173ffffffffffffffffffffffffffffffffffffffff021916908373ffffffffffffffffffffffffffffffffffffffff16021790555050565b600033905090565b600082821115612bc6576040517f08c379a000000000000000000000000000000000000000000000000000000000815260040180806020018281038252601e8152602001807f536166654d6174683a207375627472616374696f6e206f766572666c6f77000081525060200191505060405180910390fd5b818303905092915050565b600080828401905083811015612c4f576040517f08c379a000000000000000000000000000000000000000000000000000000000815260040180806020018281038252601b8152602001807f536166654d6174683a206164646974696f6e206f766572666c6f77000000000081525060200191505060405180910390fd5b8091505092915050565b600060068281548110612c6857fe5b9060005260206000209060060201905060006007600084815260200190815260200160002060003373ffffffffffffffffffffffffffffffffffffffff1673ffffffffffffffffffffffffffffffffffffffff1681526020019081526020016000209050600081600301541415612cf957612cf0826005015442612bd190919063ffffffff16565b81600301819055505b6000612d438260010154612d3564e8d4a51000612d2787600301548760000154612f2690919063ffffffff16565b612fac90919063ffffffff16565b612b4e90919063ffffffff16565b9050612d4f8433610d6a565b15612dea576000811180612d67575060008260020154115b15612de5576000612d85836002015483612bd190919063ffffffff16565b9050612da08360020154600a54612b4e90919063ffffffff16565b600a8190555060008360020181905550612dc7846005015442612bd190919063ffffffff16565b8360030181905550612dd933826130f6565b612de3338261336f565b505b612e7e565b6000811115612e7d57612e0a818360020154612bd190919063ffffffff16565b8260020181905550612e2781600a54612bd190919063ffffffff16565b600a81905550833373ffffffffffffffffffffffffffffffffffffffff167fee470483107f579a55c754fa00613c45a9a3b617a418b39cb0be97e5381ba7c1836040518082815260200191505060405180910390a35b5b50505050565b612f218363a9059cbb60e01b8484604051602401808373ffffffffffffffffffffffffffffffffffffffff16815260200182815260200192505050604051602081830303815290604052907bffffffffffffffffffffffffffffffffffffffffffffffffffffffff19166020820180517bffffffffffffffffffffffffffffffffffffffffffffffffffffffff83818316178352505050506136f3565b505050565b600080831415612f395760009050612fa6565b6000828402905082848281612f4a57fe5b0414612fa1576040517f08c379a0000000000000000000000000000000000000000000000000000000008152600401808060200182810382526021815260200180613b666021913960400191505060405180910390fd5b809150505b92915050565b6000808211613023576040517f08c379a000000000000000000000000000000000000000000000000000000000815260040180806020018281038252601a8152602001807f536166654d6174683a206469766973696f6e206279207a65726f00000000000081525060200191505060405180910390fd5b81838161302c57fe5b04905092915050565b6130f0846323b872dd60e01b858585604051602401808473ffffffffffffffffffffffffffffffffffffffff1681526020018373ffffffffffffffffffffffffffffffffffffffff1681526020018281526020019350505050604051602081830303815290604052907bffffffffffffffffffffffffffffffffffffffffffffffffffffffff19166020820180517bffffffffffffffffffffffffffffffffffffffffffffffffffffffff83818316178352505050506136f3565b50505050565b6000600260009054906101000a900473ffffffffffffffffffffffffffffffffffffffff1673ffffffffffffffffffffffffffffffffffffffff166370a08231306040518263ffffffff1660e01b8152600401808273ffffffffffffffffffffffffffffffffffffffff16815260200191505060206040518083038186803b15801561318157600080fd5b505afa158015613195573d6000803e3d6000fd5b505050506040513d60208110156131ab57600080fd5b810190808051906020019092919050505090508082111561329a57600260009054906101000a900473ffffffffffffffffffffffffffffffffffffffff1673ffffffffffffffffffffffffffffffffffffffff1663a9059cbb84836040518363ffffffff1660e01b8152600401808373ffffffffffffffffffffffffffffffffffffffff16815260200182815260200192505050602060405180830381600087803b15801561325957600080fd5b505af115801561326d573d6000803e3d6000fd5b505050506040513d602081101561328357600080fd5b81019080805190602001909291905050505061336a565b600260009054906101000a900473ffffffffffffffffffffffffffffffffffffffff1673ffffffffffffffffffffffffffffffffffffffff1663a9059cbb84846040518363ffffffff1660e01b8152600401808373ffffffffffffffffffffffffffffffffffffffff16815260200182815260200192505050602060405180830381600087803b15801561332d57600080fd5b505af1158015613341573d6000803e3d6000fd5b505050506040513d602081101561335757600080fd5b8101908080519060200190929190505050505b505050565b600073ffffffffffffffffffffffffffffffffffffffff16600b60009054906101000a900473ffffffffffffffffffffffffffffffffffffffff1673ffffffffffffffffffffffffffffffffffffffff16141580156133e257506000600b60149054906101000a900461ffff1661ffff16115b156136ef576000600b60009054906101000a900473ffffffffffffffffffffffffffffffffffffffff1673ffffffffffffffffffffffffffffffffffffffff16634a9fefc7846040518263ffffffff1660e01b8152600401808273ffffffffffffffffffffffffffffffffffffffff16815260200191505060206040518083038186803b15801561347257600080fd5b505afa158015613486573d6000803e3d6000fd5b505050506040513d602081101561349c57600080fd5b8101908080519060200190929190505050905060006134ec6127106134de600b60149054906101000a900461ffff1661ffff1686612f2690919063ffffffff16565b612fac90919063ffffffff16565b9050600073ffffffffffffffffffffffffffffffffffffffff168273ffffffffffffffffffffffffffffffffffffffff161415801561352b5750600081115b156136ec57600260009054906101000a900473ffffffffffffffffffffffffffffffffffffffff1673ffffffffffffffffffffffffffffffffffffffff166340c10f1983836040518363ffffffff1660e01b8152600401808373ffffffffffffffffffffffffffffffffffffffff16815260200182815260200192505050600060405180830381600087803b1580156135c357600080fd5b505af11580156135d7573d6000803e3d6000fd5b50505050600b60009054906101000a900473ffffffffffffffffffffffffffffffffffffffff1673ffffffffffffffffffffffffffffffffffffffff1663dc1694b883836040518363ffffffff1660e01b8152600401808373ffffffffffffffffffffffffffffffffffffffff16815260200182815260200192505050600060405180830381600087803b15801561366e57600080fd5b505af1158015613682573d6000803e3d6000fd5b505050508173ffffffffffffffffffffffffffffffffffffffff168473ffffffffffffffffffffffffffffffffffffffff167f86ddab457291316e0f5496737e5ca67c4037234c32c3be04c48ae96186893a7b836040518082815260200191505060405180910390a35b50505b5050565b6060613755826040518060400160405280602081526020017f5361666542455032303a206c6f772d6c6576656c2063616c6c206661696c65648152508573ffffffffffffffffffffffffffffffffffffffff166137e29092919063ffffffff16565b90506000815111156137dd5780806020019051602081101561377657600080fd5b81019080805190602001909291905050506137dc576040517f08c379a000000000000000000000000000000000000000000000000000000000815260040180806020018281038252602a815260200180613af0602a913960400191505060405180910390fd5b5b505050565b60606137f184846000856137fa565b90509392505050565b606082471015613855576040517f08c379a0000000000000000000000000000000000000000000000000000000008152600401808060200182810382526026815260200180613b406026913960400191505060405180910390fd5b61385e856139a3565b6138d0576040517f08c379a000000000000000000000000000000000000000000000000000000000815260040180806020018281038252601d8152602001807f416464726573733a2063616c6c20746f206e6f6e2d636f6e747261637400000081525060200191505060405180910390fd5b600060608673ffffffffffffffffffffffffffffffffffffffff1685876040518082805190602001908083835b6020831061392057805182526020820191506020810190506020830392506138fd565b6001836020036101000a03801982511681845116808217855250505050505090500191505060006040518083038185875af1925050503d8060008114613982576040519150601f19603f3d011682016040523d82523d6000602084013e613987565b606091505b50915091506139978282866139b6565b92505050949350505050565b600080823b905060008111915050919050565b606083156139c657829050613a7b565b6000835111156139d95782518084602001fd5b816040517f08c379a00000000000000000000000000000000000000000000000000000000081526004018080602001828103825283818151815260200191508051906020019080838360005b83811015613a40578082015181840152602081019050613a25565b50505050905090810190601f168015613a6d5780820380516001836020036101000a031916815260200191505b509250505060405180910390fd5b939250505056fe6164643a20696e76616c6964206465706f7369742066656520626173697320706f696e7473736574526566657272616c436f6d6d697373696f6e526174653a20696e76616c696420726566657272616c20636f6d6d697373696f6e207261746520626173697320706f696e74735361666542455032303a204245503230206f7065726174696f6e20646964206e6f7420737563636565644f776e61626c653a206e6577206f776e657220697320746865207a65726f2061646472657373416464726573733a20696e73756666696369656e742062616c616e636520666f722063616c6c536166654d6174683a206d756c7469706c69636174696f6e206f766572666c6f777365743a20696e76616c6964206465706f7369742066656520626173697320706f696e7473a2646970667358221220840743169e27049ef2598b4c14b05f38173f3682b05569ac8c352a830e12f05264736f6c634300060c0033",
  "immutableReferences": {},
  "source": "// SPDX-License-Identifier: MIT\n\npragma solidity 0.6.12;\n\nimport \"@openzeppelin/contracts/math/SafeMath.sol\";\nimport \"./libs/IBEP20.sol\";\nimport \"./libs/SafeBEP20.sol\";\nimport \"./libs/IPattayaReferral.sol\";\nimport \"@openzeppelin/contracts/access/Ownable.sol\";\nimport \"@openzeppelin/contracts/utils/ReentrancyGuard.sol\";\n\nimport \"./PattayaToken.sol\";\n\n// MasterChef is the master of Pattaya. He can make Pattaya and he is a fair guy.\n//\n// Note that it's ownable and the owner wields tremendous power. The ownership\n// will be transferred to a governance smart contract once PATTAYA is sufficiently\n// distributed and the community can show to govern itself.\n//\n// Have fun reading it. Hopefully it's bug-free. God bless.\ncontract MasterChef is Ownable, ReentrancyGuard {\n    using SafeMath for uint256;\n    using SafeBEP20 for IBEP20;\n\n    // Info of each user.\n    struct UserInfo {\n        uint256 amount;         // How many LP tokens the user has provided.\n        uint256 rewardDebt;     // Reward debt. See explanation below.\n        uint256 rewardLockedUp;  // Reward locked up.\n        uint256 nextHarvestUntil; // When can the user harvest again.\n        //\n        // We do some fancy math here. Basically, any point in time, the amount of PATTAYAs\n        // entitled to a user but is pending to be distributed is:\n        //\n        //   pending reward = (user.amount * pool.accPattayaPerShare) - user.rewardDebt\n        //\n        // Whenever a user deposits or withdraws LP tokens to a pool. Here's what happens:\n        //   1. The pool's `accPattayaPerShare` (and `lastRewardBlock`) gets updated.\n        //   2. User receives the pending reward sent to his/her address.\n        //   3. User's `amount` gets updated.\n        //   4. User's `rewardDebt` gets updated.\n    }\n\n    // Info of each pool.\n    struct PoolInfo {\n        IBEP20 lpToken;           // Address of LP token contract.\n        uint256 allocPoint;       // How many allocation points assigned to this pool. PATTAYAs to distribute per block.\n        uint256 lastRewardBlock;  // Last block number that PATTAYAs distribution occurs.\n        uint256 accPattayaPerShare;   // Accumulated PATTAYAs per share, times 1e12. See below.\n        uint16 depositFeeBP;      // Deposit fee in basis points\n        uint256 harvestInterval;  // Harvest interval in seconds\n    }\n\n    // The PATTAYA TOKEN!\n    PattayaToken public pattaya;\n    // Dev address.\n    address public devAddress;\n    // Deposit Fee address\n    address public feeAddress;\n    // PATTAYA tokens created per block.\n    uint256 public pattayaPerBlock;\n    // Bonus muliplier for early pattaya makers.\n    uint256 public constant BONUS_MULTIPLIER = 1;\n    // Max harvest interval: 14 days.\n    uint256 public constant MAXIMUM_HARVEST_INTERVAL = 14 days;\n\n    // Info of each pool.\n    PoolInfo[] public poolInfo;\n    // Info of each user that stakes LP tokens.\n    mapping(uint256 => mapping(address => UserInfo)) public userInfo;\n    // Total allocation points. Must be the sum of all allocation points in all pools.\n    uint256 public totalAllocPoint = 0;\n    // The block number when PATTAYA mining starts.\n    uint256 public startBlock;\n    // Total locked up rewards\n    uint256 public totalLockedUpRewards;\n\n    // Pattaya referral contract address.\n    IPattayaReferral public pattayaReferral;\n    // Referral commission rate in basis points.\n    uint16 public referralCommissionRate = 100;\n    // Max referral commission rate: 10%.\n    uint16 public constant MAXIMUM_REFERRAL_COMMISSION_RATE = 1000;\n\n    event Deposit(address indexed user, uint256 indexed pid, uint256 amount);\n    event Withdraw(address indexed user, uint256 indexed pid, uint256 amount);\n    event EmergencyWithdraw(address indexed user, uint256 indexed pid, uint256 amount);\n    event EmissionRateUpdated(address indexed caller, uint256 previousAmount, uint256 newAmount);\n    event ReferralCommissionPaid(address indexed user, address indexed referrer, uint256 commissionAmount);\n    event RewardLockedUp(address indexed user, uint256 indexed pid, uint256 amountLockedUp);\n\n    constructor(\n        PattayaToken _pattaya,\n        uint256 _startBlock,\n        uint256 _pattayaPerBlock\n    ) public {\n        pattaya = _pattaya;\n        startBlock = _startBlock;\n        pattayaPerBlock = _pattayaPerBlock;\n\n        devAddress = msg.sender;\n        feeAddress = msg.sender;\n    }\n\n    function poolLength() external view returns (uint256) {\n        return poolInfo.length;\n    }\n\n    // Add a new lp to the pool. Can only be called by the owner.\n    // XXX DO NOT add the same LP token more than once. Rewards will be messed up if you do.\n    function add(uint256 _allocPoint, IBEP20 _lpToken, uint16 _depositFeeBP, uint256 _harvestInterval, bool _withUpdate) public onlyOwner {\n        require(_depositFeeBP <= 10000, \"add: invalid deposit fee basis points\");\n        require(_harvestInterval <= MAXIMUM_HARVEST_INTERVAL, \"add: invalid harvest interval\");\n        if (_withUpdate) {\n            massUpdatePools();\n        }\n        uint256 lastRewardBlock = block.number > startBlock ? block.number : startBlock;\n        totalAllocPoint = totalAllocPoint.add(_allocPoint);\n        poolInfo.push(PoolInfo({\n            lpToken: _lpToken,\n            allocPoint: _allocPoint,\n            lastRewardBlock: lastRewardBlock,\n            accPattayaPerShare: 0,\n            depositFeeBP: _depositFeeBP,\n            harvestInterval: _harvestInterval\n        }));\n    }\n\n    // Update the given pool's PATTAYA allocation point and deposit fee. Can only be called by the owner.\n    function set(uint256 _pid, uint256 _allocPoint, uint16 _depositFeeBP, uint256 _harvestInterval, bool _withUpdate) public onlyOwner {\n        require(_depositFeeBP <= 10000, \"set: invalid deposit fee basis points\");\n        require(_harvestInterval <= MAXIMUM_HARVEST_INTERVAL, \"set: invalid harvest interval\");\n        if (_withUpdate) {\n            massUpdatePools();\n        }\n        totalAllocPoint = totalAllocPoint.sub(poolInfo[_pid].allocPoint).add(_allocPoint);\n        poolInfo[_pid].allocPoint = _allocPoint;\n        poolInfo[_pid].depositFeeBP = _depositFeeBP;\n        poolInfo[_pid].harvestInterval = _harvestInterval;\n    }\n\n    // Return reward multiplier over the given _from to _to block.\n    function getMultiplier(uint256 _from, uint256 _to) public pure returns (uint256) {\n        return _to.sub(_from).mul(BONUS_MULTIPLIER);\n    }\n\n    // View function to see pending PATTAYAs on frontend.\n    function pendingPattaya(uint256 _pid, address _user) external view returns (uint256) {\n        PoolInfo storage pool = poolInfo[_pid];\n        UserInfo storage user = userInfo[_pid][_user];\n        uint256 accPattayaPerShare = pool.accPattayaPerShare;\n        uint256 lpSupply = pool.lpToken.balanceOf(address(this));\n        if (block.number > pool.lastRewardBlock && lpSupply != 0) {\n            uint256 multiplier = getMultiplier(pool.lastRewardBlock, block.number);\n            uint256 pattayaReward = multiplier.mul(pattayaPerBlock).mul(pool.allocPoint).div(totalAllocPoint);\n            accPattayaPerShare = accPattayaPerShare.add(pattayaReward.mul(1e12).div(lpSupply));\n        }\n        uint256 pending = user.amount.mul(accPattayaPerShare).div(1e12).sub(user.rewardDebt);\n        return pending.add(user.rewardLockedUp);\n    }\n\n    // View function to see if user can harvest PATTAYAs.\n    function canHarvest(uint256 _pid, address _user) public view returns (bool) {\n        UserInfo storage user = userInfo[_pid][_user];\n        return block.timestamp >= user.nextHarvestUntil;\n    }\n\n    // Update reward variables for all pools. Be careful of gas spending!\n    function massUpdatePools() public {\n        uint256 length = poolInfo.length;\n        for (uint256 pid = 0; pid < length; ++pid) {\n            updatePool(pid);\n        }\n    }\n\n    // Update reward variables of the given pool to be up-to-date.\n    function updatePool(uint256 _pid) public {\n        PoolInfo storage pool = poolInfo[_pid];\n        if (block.number <= pool.lastRewardBlock) {\n            return;\n        }\n        uint256 lpSupply = pool.lpToken.balanceOf(address(this));\n        if (lpSupply == 0 || pool.allocPoint == 0) {\n            pool.lastRewardBlock = block.number;\n            return;\n        }\n        uint256 multiplier = getMultiplier(pool.lastRewardBlock, block.number);\n        uint256 pattayaReward = multiplier.mul(pattayaPerBlock).mul(pool.allocPoint).div(totalAllocPoint);\n        pattaya.mint(devAddress, pattayaReward.div(10));\n        pattaya.mint(address(this), pattayaReward);\n        pool.accPattayaPerShare = pool.accPattayaPerShare.add(pattayaReward.mul(1e12).div(lpSupply));\n        pool.lastRewardBlock = block.number;\n    }\n\n    // Deposit LP tokens to MasterChef for PATTAYA allocation.\n    function deposit(uint256 _pid, uint256 _amount, address _referrer) public nonReentrant {\n        PoolInfo storage pool = poolInfo[_pid];\n        UserInfo storage user = userInfo[_pid][msg.sender];\n        updatePool(_pid);\n        if (_amount > 0 && address(pattayaReferral) != address(0) && _referrer != address(0) && _referrer != msg.sender) {\n            pattayaReferral.recordReferral(msg.sender, _referrer);\n        }\n        payOrLockupPendingPattaya(_pid);\n        if (_amount > 0) {\n            pool.lpToken.safeTransferFrom(address(msg.sender), address(this), _amount);\n            if (address(pool.lpToken) == address(pattaya)) {\n                uint256 transferTax = _amount.mul(pattaya.transferTaxRate()).div(10000);\n                _amount = _amount.sub(transferTax);\n            }\n            if (pool.depositFeeBP > 0) {\n                uint256 depositFee = _amount.mul(pool.depositFeeBP).div(10000);\n                pool.lpToken.safeTransfer(feeAddress, depositFee);\n                user.amount = user.amount.add(_amount).sub(depositFee);\n            } else {\n                user.amount = user.amount.add(_amount);\n            }\n        }\n        user.rewardDebt = user.amount.mul(pool.accPattayaPerShare).div(1e12);\n        emit Deposit(msg.sender, _pid, _amount);\n    }\n\n    // Withdraw LP tokens from MasterChef.\n    function withdraw(uint256 _pid, uint256 _amount) public nonReentrant {\n        PoolInfo storage pool = poolInfo[_pid];\n        UserInfo storage user = userInfo[_pid][msg.sender];\n        require(user.amount >= _amount, \"withdraw: not good\");\n        updatePool(_pid);\n        payOrLockupPendingPattaya(_pid);\n        if (_amount > 0) {\n            user.amount = user.amount.sub(_amount);\n            pool.lpToken.safeTransfer(address(msg.sender), _amount);\n        }\n        user.rewardDebt = user.amount.mul(pool.accPattayaPerShare).div(1e12);\n        emit Withdraw(msg.sender, _pid, _amount);\n    }\n\n    // Withdraw without caring about rewards. EMERGENCY ONLY.\n    function emergencyWithdraw(uint256 _pid) public nonReentrant {\n        PoolInfo storage pool = poolInfo[_pid];\n        UserInfo storage user = userInfo[_pid][msg.sender];\n        uint256 amount = user.amount;\n        user.amount = 0;\n        user.rewardDebt = 0;\n        user.rewardLockedUp = 0;\n        user.nextHarvestUntil = 0;\n        pool.lpToken.safeTransfer(address(msg.sender), amount);\n        emit EmergencyWithdraw(msg.sender, _pid, amount);\n    }\n\n    // Pay or lockup pending PATTAYAs.\n    function payOrLockupPendingPattaya(uint256 _pid) internal {\n        PoolInfo storage pool = poolInfo[_pid];\n        UserInfo storage user = userInfo[_pid][msg.sender];\n\n        if (user.nextHarvestUntil == 0) {\n            user.nextHarvestUntil = block.timestamp.add(pool.harvestInterval);\n        }\n\n        uint256 pending = user.amount.mul(pool.accPattayaPerShare).div(1e12).sub(user.rewardDebt);\n        if (canHarvest(_pid, msg.sender)) {\n            if (pending > 0 || user.rewardLockedUp > 0) {\n                uint256 totalRewards = pending.add(user.rewardLockedUp);\n\n                // reset lockup\n                totalLockedUpRewards = totalLockedUpRewards.sub(user.rewardLockedUp);\n                user.rewardLockedUp = 0;\n                user.nextHarvestUntil = block.timestamp.add(pool.harvestInterval);\n\n                // send rewards\n                safePattayaTransfer(msg.sender, totalRewards);\n                payReferralCommission(msg.sender, totalRewards);\n            }\n        } else if (pending > 0) {\n            user.rewardLockedUp = user.rewardLockedUp.add(pending);\n            totalLockedUpRewards = totalLockedUpRewards.add(pending);\n            emit RewardLockedUp(msg.sender, _pid, pending);\n        }\n    }\n\n    // Safe pattaya transfer function, just in case if rounding error causes pool to not have enough PATTAYAs.\n    function safePattayaTransfer(address _to, uint256 _amount) internal {\n        uint256 pattayaBal = pattaya.balanceOf(address(this));\n        if (_amount > pattayaBal) {\n            pattaya.transfer(_to, pattayaBal);\n        } else {\n            pattaya.transfer(_to, _amount);\n        }\n    }\n\n    // Update dev address by the previous dev.\n    function setDevAddress(address _devAddress) public {\n        require(msg.sender == devAddress, \"setDevAddress: FORBIDDEN\");\n        require(_devAddress != address(0), \"setDevAddress: ZERO\");\n        devAddress = _devAddress;\n    }\n\n    function setFeeAddress(address _feeAddress) public {\n        require(msg.sender == feeAddress, \"setFeeAddress: FORBIDDEN\");\n        require(_feeAddress != address(0), \"setFeeAddress: ZERO\");\n        feeAddress = _feeAddress;\n    }\n\n    // Pancake has to add hidden dummy pools in order to alter the emission, here we make it simple and transparent to all.\n    function updateEmissionRate(uint256 _pattayaPerBlock) public onlyOwner {\n        massUpdatePools();\n        emit EmissionRateUpdated(msg.sender, pattayaPerBlock, _pattayaPerBlock);\n        pattayaPerBlock = _pattayaPerBlock;\n    }\n\n    // Update the pattaya referral contract address by the owner\n    function setPattayaReferral(IPattayaReferral _pattayaReferral) public onlyOwner {\n        pattayaReferral = _pattayaReferral;\n    }\n\n    // Update referral commission rate by the owner\n    function setReferralCommissionRate(uint16 _referralCommissionRate) public onlyOwner {\n        require(_referralCommissionRate <= MAXIMUM_REFERRAL_COMMISSION_RATE, \"setReferralCommissionRate: invalid referral commission rate basis points\");\n        referralCommissionRate = _referralCommissionRate;\n    }\n\n    // Pay referral commission to the referrer who referred this user.\n    function payReferralCommission(address _user, uint256 _pending) internal {\n        if (address(pattayaReferral) != address(0) && referralCommissionRate > 0) {\n            address referrer = pattayaReferral.getReferrer(_user);\n            uint256 commissionAmount = _pending.mul(referralCommissionRate).div(10000);\n\n            if (referrer != address(0) && commissionAmount > 0) {\n                pattaya.mint(referrer, commissionAmount);\n                pattayaReferral.recordReferralCommission(referrer, commissionAmount);\n                emit ReferralCommissionPaid(_user, referrer, commissionAmount);\n            }\n        }\n    }\n}\n",
  "sourcePath": "/Users/anugoon_t/Documents/projects/self/amm/src/pattaya-farm/contracts/MasterChef.sol",
  "compiler": {
    "name": "solc",
    "version": "0.6.12+commit.27d51765.Emscripten.clang"
  },
  "schemaVersion": "3.3.3",
  "updatedAt": "2021-07-17T11:46:22.957Z",
  "devdoc": {
    "kind": "dev",
    "methods": {
      "owner()": {
        "details": "Returns the address of the current owner."
      },
      "renounceOwnership()": {
        "details": "Leaves the contract without owner. It will not be possible to call `onlyOwner` functions anymore. Can only be called by the current owner. NOTE: Renouncing ownership will leave the contract without an owner, thereby removing any functionality that is only available to the owner."
      },
      "transferOwnership(address)": {
        "details": "Transfers ownership of the contract to a new account (`newOwner`). Can only be called by the current owner."
      }
    },
    "version": 1
  },
  "userdoc": {
    "kind": "user",
    "methods": {},
    "version": 1
  }
}